{
  "contractName": "DonateContract",
  "abi": [
    {
      "inputs": [],
      "payable": false,
      "stateMutability": "nonpayable",
      "type": "constructor"
    },
    {
      "anonymous": false,
      "inputs": [
        {
          "indexed": false,
          "name": "owner",
          "type": "address"
        },
        {
          "indexed": false,
          "name": "fundsNeeded",
          "type": "uint256"
        },
        {
          "indexed": false,
          "name": "date",
          "type": "uint256"
        }
      ],
      "name": "CampaingStarted",
      "type": "event"
    },
    {
      "anonymous": false,
      "inputs": [
        {
          "indexed": false,
          "name": "from",
          "type": "address"
        },
        {
          "indexed": false,
          "name": "campaign",
          "type": "address"
        },
        {
          "indexed": false,
          "name": "fundsAmount",
          "type": "uint256"
        },
        {
          "indexed": false,
          "name": "date",
          "type": "uint256"
        }
      ],
      "name": "FundsDonated",
      "type": "event"
    },
    {
      "anonymous": false,
      "inputs": [
        {
          "indexed": false,
          "name": "from",
          "type": "address"
        },
        {
          "indexed": false,
          "name": "fundsAmount",
          "type": "uint256"
        },
        {
          "indexed": false,
          "name": "date",
          "type": "uint256"
        }
      ],
      "name": "ContractDonated",
      "type": "event"
    },
    {
      "constant": true,
      "inputs": [],
      "name": "getAllCampaigns",
      "outputs": [
        {
          "name": "",
          "type": "uint256"
        }
      ],
      "payable": false,
      "stateMutability": "view",
      "type": "function"
    },
    {
      "constant": false,
      "inputs": [],
      "name": "donate",
      "outputs": [],
      "payable": true,
      "stateMutability": "payable",
      "type": "function"
    },
    {
      "constant": false,
      "inputs": [
        {
          "name": "_addr",
          "type": "address"
        },
        {
          "name": "fundsNeeded",
          "type": "uint256"
        }
      ],
      "name": "startCampaign",
      "outputs": [],
      "payable": false,
      "stateMutability": "nonpayable",
      "type": "function"
    },
    {
      "constant": false,
      "inputs": [
        {
          "name": "campaignAddr",
          "type": "address"
        }
      ],
      "name": "donateForCampaign",
      "outputs": [],
      "payable": true,
      "stateMutability": "payable",
      "type": "function"
    },
    {
      "constant": true,
      "inputs": [],
      "name": "allCampaignsInfo",
      "outputs": [
        {
          "name": "totalFunds",
          "type": "uint256"
        },
        {
          "name": "allCampaings",
          "type": "uint256"
        }
      ],
      "payable": false,
      "stateMutability": "view",
      "type": "function"
    },
    {
      "constant": true,
      "inputs": [
        {
          "name": "index",
          "type": "uint256"
        }
      ],
      "name": "campaignDetails",
      "outputs": [
        {
          "name": "campaignOwner",
          "type": "address"
        },
        {
          "name": "totalNeeded",
          "type": "uint256"
        },
        {
          "name": "collectedUntilNow",
          "type": "uint256"
        },
        {
          "name": "giversCount",
          "type": "uint256"
        },
        {
          "name": "isActive",
          "type": "bool"
        },
        {
          "name": "created",
          "type": "uint256"
        },
        {
          "name": "donatedEnd",
          "type": "uint256"
        }
      ],
      "payable": false,
      "stateMutability": "view",
      "type": "function"
    },
    {
      "constant": true,
      "inputs": [
        {
          "name": "campaignAddr",
          "type": "address"
        },
        {
          "name": "index",
          "type": "uint256"
        }
      ],
      "name": "giverDetails",
      "outputs": [
        {
          "name": "giver",
          "type": "address"
        },
        {
          "name": "amount",
          "type": "uint256"
        },
        {
          "name": "date",
          "type": "uint256"
        }
      ],
      "payable": false,
      "stateMutability": "view",
      "type": "function"
    },
    {
      "constant": true,
      "inputs": [],
      "name": "hasOwnerRights",
      "outputs": [
        {
          "name": "",
          "type": "bool"
        }
      ],
      "payable": false,
      "stateMutability": "view",
      "type": "function"
    },
    {
      "constant": true,
      "inputs": [],
      "name": "getBalance",
      "outputs": [
        {
          "name": "",
          "type": "uint256"
        }
      ],
      "payable": false,
      "stateMutability": "view",
      "type": "function"
    }
  ],
  "bytecode": "0x6060604052341561000f57600080fd5b336000806101000a81548173ffffffffffffffffffffffffffffffffffffffff021916908373ffffffffffffffffffffffffffffffffffffffff1602179055506000600181905550600060028190555061127c8061006e6000396000f300606060405260043610610099576000357c0100000000000000000000000000000000000000000000000000000000900463ffffffff1680630131bc501461009e57806312065fe01461012f5780631ffa8d8b1461015857806334ea56be1461018857806386cdf60414610218578063afc6f36414610241578063d5574d0c14610283578063ed88c68e146102b0578063fe96cf05146102ba575b600080fd5b34156100a957600080fd5b6100bf60048080359060200190919050506102e8565b604051808873ffffffffffffffffffffffffffffffffffffffff1673ffffffffffffffffffffffffffffffffffffffff1681526020018781526020018681526020018581526020018415151515815260200183815260200182815260200197505050505050505060405180910390f35b341561013a57600080fd5b6101426104f9565b6040518082815260200191505060405180910390f35b341561016357600080fd5b61016b610573565b604051808381526020018281526020019250505060405180910390f35b341561019357600080fd5b6101c8600480803573ffffffffffffffffffffffffffffffffffffffff1690602001909190803590602001909190505061058a565b604051808473ffffffffffffffffffffffffffffffffffffffff1673ffffffffffffffffffffffffffffffffffffffff168152602001838152602001828152602001935050505060405180910390f35b341561022357600080fd5b61022b61068f565b6040518082815260200191505060405180910390f35b341561024c57600080fd5b610281600480803573ffffffffffffffffffffffffffffffffffffffff16906020019091908035906020019091905050610699565b005b341561028e57600080fd5b6102966109ca565b604051808215151515815260200191505060405180910390f35b6102b8610a21565b005b6102e6600480803573ffffffffffffffffffffffffffffffffffffffff16906020019091905050610a96565b005b600080600080600080600080600560008a815260200190815260200160002060009054906101000a900473ffffffffffffffffffffffffffffffffffffffff16905080975087600360008373ffffffffffffffffffffffffffffffffffffffff1673ffffffffffffffffffffffffffffffffffffffff16815260200190815260200160002060030154975087600360008473ffffffffffffffffffffffffffffffffffffffff1673ffffffffffffffffffffffffffffffffffffffff16815260200190815260200160002060020154975087600460008573ffffffffffffffffffffffffffffffffffffffff1673ffffffffffffffffffffffffffffffffffffffff16815260200190815260200160002080549050975087600360008673ffffffffffffffffffffffffffffffffffffffff1673ffffffffffffffffffffffffffffffffffffffff16815260200190815260200160002060040160009054906101000a900460ff16975087600360008773ffffffffffffffffffffffffffffffffffffffff1673ffffffffffffffffffffffffffffffffffffffff16815260200190815260200160002060010154975087600360008873ffffffffffffffffffffffffffffffffffffffff1673ffffffffffffffffffffffffffffffffffffffff16815260200190815260200160002060050154975087975097509750975097509750975050919395979092949650565b60008060009054906101000a900473ffffffffffffffffffffffffffffffffffffffff1673ffffffffffffffffffffffffffffffffffffffff163373ffffffffffffffffffffffffffffffffffffffff1614151561055657600080fd5b3073ffffffffffffffffffffffffffffffffffffffff1631905090565b600080600254915081600154915081915091509091565b6000806000610597611141565b600460008773ffffffffffffffffffffffffffffffffffffffff1673ffffffffffffffffffffffffffffffffffffffff168152602001908152602001600020858154811015156105e357fe5b9060005260206000209060030201606060405190810160405290816000820160009054906101000a900473ffffffffffffffffffffffffffffffffffffffff1673ffffffffffffffffffffffffffffffffffffffff1673ffffffffffffffffffffffffffffffffffffffff168152602001600182015481526020016002820154815250509050806000015193508381602001519350838260400151935083935093509350509250925092565b6000600154905090565b6106a1611179565b6000809054906101000a900473ffffffffffffffffffffffffffffffffffffffff1673ffffffffffffffffffffffffffffffffffffffff163373ffffffffffffffffffffffffffffffffffffffff161415156106fc57600080fd5b828073ffffffffffffffffffffffffffffffffffffffff16600360008373ffffffffffffffffffffffffffffffffffffffff1673ffffffffffffffffffffffffffffffffffffffff16815260200190815260200160002060000160009054906101000a900473ffffffffffffffffffffffffffffffffffffffff1673ffffffffffffffffffffffffffffffffffffffff161415151561079a57600080fd5b4282602001818152505083826000019073ffffffffffffffffffffffffffffffffffffffff16908173ffffffffffffffffffffffffffffffffffffffff16815250506001826080019015159081151581525050670de0b6b3a76400008302826060018181525050600082604001818152505060008260a001818152505081600360008673ffffffffffffffffffffffffffffffffffffffff1673ffffffffffffffffffffffffffffffffffffffff16815260200190815260200160002060008201518160000160006101000a81548173ffffffffffffffffffffffffffffffffffffffff021916908373ffffffffffffffffffffffffffffffffffffffff16021790555060208201518160010155604082015181600201556060820151816003015560808201518160040160006101000a81548160ff02191690831515021790555060a082015181600501559050508360056000600154815260200190815260200160002060006101000a81548173ffffffffffffffffffffffffffffffffffffffff021916908373ffffffffffffffffffffffffffffffffffffffff160217905550600180600082825401925050819055507fbbbbb90fb58ea013e310309b010cd9899ef195c4f96617909e6ddcd49b2a948984836060015142604051808473ffffffffffffffffffffffffffffffffffffffff1673ffffffffffffffffffffffffffffffffffffffff168152602001838152602001828152602001935050505060405180910390a150505050565b60008060009054906101000a900473ffffffffffffffffffffffffffffffffffffffff1673ffffffffffffffffffffffffffffffffffffffff163373ffffffffffffffffffffffffffffffffffffffff1614905090565b7fb0e82e832d10314ecd9b1deea250114e3001286c69b286938e67d5377c3a6af8333442604051808473ffffffffffffffffffffffffffffffffffffffff1673ffffffffffffffffffffffffffffffffffffffff168152602001838152602001828152602001935050505060405180910390a1565b600080610aa1611141565b838073ffffffffffffffffffffffffffffffffffffffff16600360008373ffffffffffffffffffffffffffffffffffffffff1673ffffffffffffffffffffffffffffffffffffffff16815260200190815260200160002060000160009054906101000a900473ffffffffffffffffffffffffffffffffffffffff1673ffffffffffffffffffffffffffffffffffffffff16141515610b3e57600080fd5b60011515600360008373ffffffffffffffffffffffffffffffffffffffff1673ffffffffffffffffffffffffffffffffffffffff16815260200190815260200160002060040160009054906101000a900460ff161515141515610ba057600080fd5b600034111515610baf57600080fd5b846000600360008373ffffffffffffffffffffffffffffffffffffffff1673ffffffffffffffffffffffffffffffffffffffff16815260200190815260200160002060020154905080348201111515610c0757600080fd5b349550610c13876110aa565b15610ce757600360008873ffffffffffffffffffffffffffffffffffffffff1673ffffffffffffffffffffffffffffffffffffffff16815260200190815260200160002060020154600360008973ffffffffffffffffffffffffffffffffffffffff1673ffffffffffffffffffffffffffffffffffffffff1681526020019081526020016000206003015403955085340394503373ffffffffffffffffffffffffffffffffffffffff166108fc869081150290604051600060405180830381858888f193505050501515610ce657600080fd5b5b85600360008973ffffffffffffffffffffffffffffffffffffffff1673ffffffffffffffffffffffffffffffffffffffff168152602001908152602001600020600201600082825401925050819055506060604051908101604052803373ffffffffffffffffffffffffffffffffffffffff168152602001878152602001428152509350600460008873ffffffffffffffffffffffffffffffffffffffff1673ffffffffffffffffffffffffffffffffffffffff1681526020019081526020016000208054806001018281610dbc91906111c8565b9160005260206000209060030201600086909190915060008201518160000160006101000a81548173ffffffffffffffffffffffffffffffffffffffff021916908373ffffffffffffffffffffffffffffffffffffffff1602179055506020820151816001015560408201518160020155505050856002600082825401925050819055507f0519614961a48c19717c9f3cf8a280ccb9f67abc46053244e99f901805310f103388888760400151604051808573ffffffffffffffffffffffffffffffffffffffff1673ffffffffffffffffffffffffffffffffffffffff1681526020018473ffffffffffffffffffffffffffffffffffffffff1673ffffffffffffffffffffffffffffffffffffffff16815260200183815260200182815260200194505050505060405180910390a1600360008873ffffffffffffffffffffffffffffffffffffffff1673ffffffffffffffffffffffffffffffffffffffff16815260200190815260200160002060030154600360008973ffffffffffffffffffffffffffffffffffffffff1673ffffffffffffffffffffffffffffffffffffffff168152602001908152602001600020600201541015156110a1576000600360008973ffffffffffffffffffffffffffffffffffffffff1673ffffffffffffffffffffffffffffffffffffffff16815260200190815260200160002060040160006101000a81548160ff0219169083151502179055508360400151600360008973ffffffffffffffffffffffffffffffffffffffff1673ffffffffffffffffffffffffffffffffffffffff168152602001908152602001600020600501819055508673ffffffffffffffffffffffffffffffffffffffff166108fc600360008a73ffffffffffffffffffffffffffffffffffffffff1673ffffffffffffffffffffffffffffffffffffffff168152602001908152602001600020600201549081150290604051600060405180830381858888f1935050505015156110a057600080fd5b5b50505050505050565b600080600360008473ffffffffffffffffffffffffffffffffffffffff1673ffffffffffffffffffffffffffffffffffffffff1681526020019081526020016000206003015434600360008673ffffffffffffffffffffffffffffffffffffffff1673ffffffffffffffffffffffffffffffffffffffff168152602001908152602001600020600201540111905080915050919050565b606060405190810160405280600073ffffffffffffffffffffffffffffffffffffffff16815260200160008152602001600081525090565b60c060405190810160405280600073ffffffffffffffffffffffffffffffffffffffff168152602001600081526020016000815260200160008152602001600015158152602001600081525090565b8154818355818115116111f5576003028160030283600052602060002091820191016111f491906111fa565b5b505050565b61124d91905b8082111561124957600080820160006101000a81549073ffffffffffffffffffffffffffffffffffffffff02191690556001820160009055600282016000905550600301611200565b5090565b905600a165627a7a72305820c525c1971f616e7aff73a5c658a24e0723be8737286a07daac0f943b9cbed64c0029",
  "source": "pragma solidity ^0.4.18;\r\n\r\ncontract DonateContract {\r\n    \r\n    struct DonationInfo {\r\n        address giver;\r\n        uint amount;\r\n        uint date;\r\n    }\r\n    \r\n     struct CampaignInfo {\r\n        address holder; \r\n        uint creationDate;\r\n        uint collectedFunds;\r\n        uint totalFundsNeeded;\r\n        bool isActive;\r\n        uint fundsCollectedAt;\r\n    }\r\n    \r\n    address private owner;\r\n    uint private totalCampaings;\r\n    uint private totalFundsDonated;\r\n    \r\n    mapping(address => CampaignInfo) private campaigns;\r\n    mapping(address => DonationInfo[]) private donationDetails;\r\n    \r\n    //helper mappings for iterating \r\n    mapping(uint => address) campaignIndexes;\r\n    \r\n    \r\n    event CampaingStarted(address owner, uint fundsNeeded, uint date);\r\n    event FundsDonated(address from, address campaign, uint fundsAmount, uint date);\r\n    event ContractDonated(address from, uint fundsAmount, uint date);\r\n     \r\n    function DonateContract() public {\r\n        owner = msg.sender;\r\n        totalCampaings = 0;\r\n        totalFundsDonated = 0;\r\n    }\r\n    \r\n    modifier isOwner() {\r\n        require(msg.sender == owner);\r\n        _;\r\n    }\r\n    \r\n    modifier isMoreThanZero() {\r\n       require(msg.value > 0);\r\n         _;\r\n    }\r\n    \r\n    modifier isOverflow(address _campaignAddr) {\r\n        uint campaignFunds = campaigns[_campaignAddr].collectedFunds;\r\n        require(campaignFunds + msg.value > campaignFunds);\r\n         _;\r\n    }\r\n    \r\n    modifier isValidCampaign(address _addr) {\r\n       require(campaigns[_addr].holder == _addr);\r\n       require(campaigns[_addr].isActive == true);\r\n       _;\r\n    }\r\n    \r\n    modifier isNewCampaign(address _addr) {\r\n        require(campaigns[_addr].holder != _addr);\r\n       _;\r\n    }\r\n    \r\n    function getAllCampaigns() public view returns(uint) {\r\n        return totalCampaings;\r\n    }\r\n    \r\n    function donate() payable public {\r\n        ContractDonated(msg.sender, msg.value, now);\r\n    }\r\n    \r\n    function startCampaign(address _addr, uint fundsNeeded) isOwner isNewCampaign(_addr) public {\r\n       CampaignInfo memory cInfo;\r\n       cInfo.creationDate = now;\r\n       cInfo.holder = _addr;\r\n       cInfo.isActive = true;\r\n       cInfo.totalFundsNeeded = fundsNeeded * 1 ether;\r\n       cInfo.collectedFunds = 0;\r\n       cInfo.fundsCollectedAt = 0;\r\n   \r\n       campaigns[_addr] = cInfo;\r\n       \r\n       campaignIndexes[totalCampaings] = _addr;\r\n       totalCampaings +=1;\r\n       \r\n       CampaingStarted(_addr, cInfo.totalFundsNeeded , now);\r\n    }\r\n    \r\n    function isDonateMoreThanRemaining(address _addr) private view returns(bool) {\r\n        bool isMore = campaigns[_addr].collectedFunds + msg.value > campaigns[_addr].totalFundsNeeded;\r\n        return isMore;\r\n    }\r\n    \r\n    function donateForCampaign(address campaignAddr) \r\n            public isValidCampaign(campaignAddr) isMoreThanZero isOverflow(campaignAddr) payable {\r\n            \r\n       \r\n        uint sumToTranfer = msg.value;\r\n         \r\n        // if sum us more take only needed\r\n        if(isDonateMoreThanRemaining(campaignAddr)) {\r\n            sumToTranfer =  campaigns[campaignAddr].totalFundsNeeded - campaigns[campaignAddr].collectedFunds;\r\n            uint moneyBack = msg.value - sumToTranfer;\r\n            msg.sender.transfer(moneyBack);\r\n        }\r\n        \r\n        campaigns[campaignAddr].collectedFunds += sumToTranfer;\r\n       \r\n        DonationInfo memory info = DonationInfo({\r\n                giver : msg.sender,\r\n                amount : sumToTranfer,\r\n                date : now\r\n            });\r\n            \r\n        donationDetails[campaignAddr].push(info);\r\n        totalFundsDonated += sumToTranfer;\r\n        \r\n        FundsDonated(msg.sender, campaignAddr, sumToTranfer , info.date);\r\n       \r\n        // money are collected \r\n        if(campaigns[campaignAddr].collectedFunds >= campaigns[campaignAddr].totalFundsNeeded) {\r\n            campaigns[campaignAddr].isActive = false;\r\n            campaigns[campaignAddr].fundsCollectedAt = info.date;\r\n            campaignAddr.transfer(campaigns[campaignAddr].collectedFunds);\r\n        }\r\n    }\r\n    \r\n    function allCampaignsInfo() public view returns(uint totalFunds, uint allCampaings) {\r\n        return (totalFunds = totalFundsDonated, allCampaings = totalCampaings);\r\n    }\r\n    \r\n    function campaignDetails(uint index) view public \r\n            returns(address campaignOwner, uint totalNeeded, uint collectedUntilNow, uint giversCount, bool isActive, uint created, uint donatedEnd){\r\n        \r\n        address _addr = campaignIndexes[index];\r\n        \r\n        return (\r\n                campaignOwner = _addr,\r\n                totalNeeded = campaigns[_addr].totalFundsNeeded,\r\n                collectedUntilNow = campaigns[_addr].collectedFunds,\r\n                giversCount = donationDetails[_addr].length,\r\n                isActive = campaigns[_addr].isActive,\r\n                created = campaigns[_addr].creationDate,\r\n                donatedEnd = campaigns[_addr].fundsCollectedAt\r\n            );\r\n    }\r\n    \r\n    function giverDetails(address campaignAddr, uint index) public view \r\n        returns (address giver, uint amount, uint date) {\r\n        \r\n        DonationInfo memory giverInfo = donationDetails[campaignAddr][index];\r\n        return (giver = giverInfo.giver, amount = giverInfo.amount, date = giverInfo.date);\r\n    }\r\n    \r\n    function hasOwnerRights() public view returns(bool){\r\n        return msg.sender == owner;\r\n    }\r\n    \r\n   function getBalance() public isOwner view returns(uint){\r\n        return this.balance;\r\n    }\r\n}",
  "sourcePath": "D:\\Projects\\BlockChain\\StaevDapp\\truffle\\contracts\\DonateContract.sol",
  "compiler": {
    "name": "solc",
    "version": "0.4.19+commit.c4cbbb05.Emscripten.clang"
  },
  "schemaVersion": "2.0.0",
  "updatedAt": "2018-03-08T21:12:07.147Z"
}