{
  "contractName": "DonateContract",
  "abi": [
    {
      "inputs": [],
      "payable": false,
      "stateMutability": "nonpayable",
      "type": "constructor"
    },
    {
      "anonymous": false,
      "inputs": [
        {
          "indexed": false,
          "name": "owner",
          "type": "address"
        },
        {
          "indexed": false,
          "name": "fundsNeeded",
          "type": "uint256"
        },
        {
          "indexed": false,
          "name": "date",
          "type": "uint256"
        }
      ],
      "name": "CompaingStarted",
      "type": "event"
    },
    {
      "anonymous": false,
      "inputs": [
        {
          "indexed": false,
          "name": "from",
          "type": "address"
        },
        {
          "indexed": false,
          "name": "compaign",
          "type": "address"
        },
        {
          "indexed": false,
          "name": "fundsAmount",
          "type": "uint256"
        },
        {
          "indexed": false,
          "name": "date",
          "type": "uint256"
        }
      ],
      "name": "FundsDonated",
      "type": "event"
    },
    {
      "anonymous": false,
      "inputs": [
        {
          "indexed": false,
          "name": "from",
          "type": "address"
        },
        {
          "indexed": false,
          "name": "fundsAmount",
          "type": "uint256"
        },
        {
          "indexed": false,
          "name": "date",
          "type": "uint256"
        }
      ],
      "name": "ContractDonated",
      "type": "event"
    },
    {
      "constant": true,
      "inputs": [],
      "name": "getAllCompaigns",
      "outputs": [
        {
          "name": "",
          "type": "uint256"
        }
      ],
      "payable": false,
      "stateMutability": "view",
      "type": "function"
    },
    {
      "constant": false,
      "inputs": [],
      "name": "donate",
      "outputs": [],
      "payable": true,
      "stateMutability": "payable",
      "type": "function"
    },
    {
      "constant": false,
      "inputs": [
        {
          "name": "_addr",
          "type": "address"
        },
        {
          "name": "fundsNeeded",
          "type": "uint256"
        }
      ],
      "name": "startCompaign",
      "outputs": [],
      "payable": false,
      "stateMutability": "nonpayable",
      "type": "function"
    },
    {
      "constant": false,
      "inputs": [
        {
          "name": "compaignAddr",
          "type": "address"
        }
      ],
      "name": "donateForCompaign",
      "outputs": [],
      "payable": true,
      "stateMutability": "payable",
      "type": "function"
    },
    {
      "constant": true,
      "inputs": [],
      "name": "allCompaignsInfo",
      "outputs": [
        {
          "name": "totalFunds",
          "type": "uint256"
        },
        {
          "name": "allCompaings",
          "type": "uint256"
        }
      ],
      "payable": false,
      "stateMutability": "view",
      "type": "function"
    },
    {
      "constant": true,
      "inputs": [
        {
          "name": "_addr",
          "type": "address"
        }
      ],
      "name": "compaignDetails",
      "outputs": [
        {
          "name": "totalNeeded",
          "type": "uint256"
        },
        {
          "name": "collectedUntilNow",
          "type": "uint256"
        },
        {
          "name": "giversCount",
          "type": "uint256"
        }
      ],
      "payable": false,
      "stateMutability": "view",
      "type": "function"
    },
    {
      "constant": true,
      "inputs": [
        {
          "name": "compaignAddr",
          "type": "address"
        },
        {
          "name": "index",
          "type": "uint256"
        }
      ],
      "name": "giverDetails",
      "outputs": [
        {
          "name": "giver",
          "type": "address"
        },
        {
          "name": "amount",
          "type": "uint256"
        },
        {
          "name": "date",
          "type": "uint256"
        }
      ],
      "payable": false,
      "stateMutability": "view",
      "type": "function"
    },
    {
      "constant": true,
      "inputs": [],
      "name": "getTotalBalance",
      "outputs": [
        {
          "name": "",
          "type": "uint256"
        }
      ],
      "payable": false,
      "stateMutability": "view",
      "type": "function"
    },
    {
      "constant": true,
      "inputs": [],
      "name": "whoIsOwner",
      "outputs": [
        {
          "name": "",
          "type": "address"
        }
      ],
      "payable": false,
      "stateMutability": "view",
      "type": "function"
    }
  ],
  "bytecode": "0x6060604052341561000f57600080fd5b336000806101000a81548173ffffffffffffffffffffffffffffffffffffffff021916908373ffffffffffffffffffffffffffffffffffffffff160217905550600060018190555060006002819055506110188061006e6000396000f300606060405260043610610099576000357c0100000000000000000000000000000000000000000000000000000000900463ffffffff1680630762dcd81461009e57806312b58349146100c75780631d6de649146100f057806334ea56be1461013257806365ce5adf146101c25780637853898f146101f25780639ee1bd0f14610220578063a13e88b214610275578063ed88c68e146102d0575b600080fd5b34156100a957600080fd5b6100b16102da565b6040518082815260200191505060405180910390f35b34156100d257600080fd5b6100da6102e4565b6040518082815260200191505060405180910390f35b34156100fb57600080fd5b610130600480803573ffffffffffffffffffffffffffffffffffffffff1690602001909190803590602001909190505061035e565b005b341561013d57600080fd5b610172600480803573ffffffffffffffffffffffffffffffffffffffff1690602001909190803590602001909190505061062c565b604051808473ffffffffffffffffffffffffffffffffffffffff1673ffffffffffffffffffffffffffffffffffffffff168152602001838152602001828152602001935050505060405180910390f35b34156101cd57600080fd5b6101d5610731565b604051808381526020018281526020019250505060405180910390f35b61021e600480803573ffffffffffffffffffffffffffffffffffffffff16906020019091905050610748565b005b341561022b57600080fd5b610233610cc4565b604051808273ffffffffffffffffffffffffffffffffffffffff1673ffffffffffffffffffffffffffffffffffffffff16815260200191505060405180910390f35b341561028057600080fd5b6102ac600480803573ffffffffffffffffffffffffffffffffffffffff16906020019091905050610ced565b60405180848152602001838152602001828152602001935050505060405180910390f35b6102d8610dd1565b005b6000600154905090565b60008060009054906101000a900473ffffffffffffffffffffffffffffffffffffffff1673ffffffffffffffffffffffffffffffffffffffff163373ffffffffffffffffffffffffffffffffffffffff1614151561034157600080fd5b3073ffffffffffffffffffffffffffffffffffffffff1631905090565b610366610edd565b6000809054906101000a900473ffffffffffffffffffffffffffffffffffffffff1673ffffffffffffffffffffffffffffffffffffffff163373ffffffffffffffffffffffffffffffffffffffff161415156103c157600080fd5b828073ffffffffffffffffffffffffffffffffffffffff16600360008373ffffffffffffffffffffffffffffffffffffffff1673ffffffffffffffffffffffffffffffffffffffff16815260200190815260200160002060000160009054906101000a900473ffffffffffffffffffffffffffffffffffffffff1673ffffffffffffffffffffffffffffffffffffffff161415151561045f57600080fd5b4282602001818152505083826000019073ffffffffffffffffffffffffffffffffffffffff16908173ffffffffffffffffffffffffffffffffffffffff16815250506001826080019015159081151581525050670de0b6b3a76400008302826060018181525050600082604001818152505081600360008673ffffffffffffffffffffffffffffffffffffffff1673ffffffffffffffffffffffffffffffffffffffff16815260200190815260200160002060008201518160000160006101000a81548173ffffffffffffffffffffffffffffffffffffffff021916908373ffffffffffffffffffffffffffffffffffffffff16021790555060208201518160010155604082015181600201556060820151816003015560808201518160040160006101000a81548160ff02191690831515021790555060a08201518160050155905050600180600082825401925050819055507f73a0e3b737f70920cd703940ef0a80ec9d280d6f2e556e39e10ac87c9da92e76848442604051808473ffffffffffffffffffffffffffffffffffffffff1673ffffffffffffffffffffffffffffffffffffffff168152602001838152602001828152602001935050505060405180910390a150505050565b6000806000610639610f2c565b600460008773ffffffffffffffffffffffffffffffffffffffff1673ffffffffffffffffffffffffffffffffffffffff1681526020019081526020016000208581548110151561068557fe5b9060005260206000209060030201606060405190810160405290816000820160009054906101000a900473ffffffffffffffffffffffffffffffffffffffff1673ffffffffffffffffffffffffffffffffffffffff1673ffffffffffffffffffffffffffffffffffffffff168152602001600182015481526020016002820154815250509050806000015193508381602001519350838260400151935083935093509350509250925092565b600080600254915081600154915081915091509091565b6000610752610f2c565b828073ffffffffffffffffffffffffffffffffffffffff16600360008373ffffffffffffffffffffffffffffffffffffffff1673ffffffffffffffffffffffffffffffffffffffff16815260200190815260200160002060000160009054906101000a900473ffffffffffffffffffffffffffffffffffffffff1673ffffffffffffffffffffffffffffffffffffffff161415156107ef57600080fd5b60011515600360008373ffffffffffffffffffffffffffffffffffffffff1673ffffffffffffffffffffffffffffffffffffffff16815260200190815260200160002060040160009054906101000a900460ff16151514151561085157600080fd5b836000600360008373ffffffffffffffffffffffffffffffffffffffff1673ffffffffffffffffffffffffffffffffffffffff168152602001908152602001600020600201549050803482011115156108a957600080fd5b3494506108b586610e46565b1561094457600360008773ffffffffffffffffffffffffffffffffffffffff1673ffffffffffffffffffffffffffffffffffffffff16815260200190815260200160002060020154600360008873ffffffffffffffffffffffffffffffffffffffff1673ffffffffffffffffffffffffffffffffffffffff168152602001908152602001600020600301540394505b84600360008873ffffffffffffffffffffffffffffffffffffffff1673ffffffffffffffffffffffffffffffffffffffff168152602001908152602001600020600201600082825401925050819055508573ffffffffffffffffffffffffffffffffffffffff166108fc869081150290604051600060405180830381858888f1935050505015156109d457600080fd5b6060604051908101604052803373ffffffffffffffffffffffffffffffffffffffff168152602001868152602001428152509350600460008773ffffffffffffffffffffffffffffffffffffffff1673ffffffffffffffffffffffffffffffffffffffff1681526020019081526020016000208054806001018281610a599190610f64565b9160005260206000209060030201600086909190915060008201518160000160006101000a81548173ffffffffffffffffffffffffffffffffffffffff021916908373ffffffffffffffffffffffffffffffffffffffff1602179055506020820151816001015560408201518160020155505050846002600082825401925050819055507f0519614961a48c19717c9f3cf8a280ccb9f67abc46053244e99f901805310f103387878760400151604051808573ffffffffffffffffffffffffffffffffffffffff1673ffffffffffffffffffffffffffffffffffffffff1681526020018473ffffffffffffffffffffffffffffffffffffffff1673ffffffffffffffffffffffffffffffffffffffff16815260200183815260200182815260200194505050505060405180910390a1600360008773ffffffffffffffffffffffffffffffffffffffff1673ffffffffffffffffffffffffffffffffffffffff16815260200190815260200160002060030154600360008873ffffffffffffffffffffffffffffffffffffffff1673ffffffffffffffffffffffffffffffffffffffff16815260200190815260200160002060020154101515610cbc576000600360008873ffffffffffffffffffffffffffffffffffffffff1673ffffffffffffffffffffffffffffffffffffffff16815260200190815260200160002060040160006101000a81548160ff0219169083151502179055508360400151600360008873ffffffffffffffffffffffffffffffffffffffff1673ffffffffffffffffffffffffffffffffffffffff168152602001908152602001600020600501819055505b505050505050565b60008060009054906101000a900473ffffffffffffffffffffffffffffffffffffffff16905090565b6000806000600360008573ffffffffffffffffffffffffffffffffffffffff1673ffffffffffffffffffffffffffffffffffffffff16815260200190815260200160002060030154925082600360008673ffffffffffffffffffffffffffffffffffffffff1673ffffffffffffffffffffffffffffffffffffffff16815260200190815260200160002060020154925082600460008773ffffffffffffffffffffffffffffffffffffffff1673ffffffffffffffffffffffffffffffffffffffff168152602001908152602001600020805490509250829250925092509193909250565b7fb0e82e832d10314ecd9b1deea250114e3001286c69b286938e67d5377c3a6af8333442604051808473ffffffffffffffffffffffffffffffffffffffff1673ffffffffffffffffffffffffffffffffffffffff168152602001838152602001828152602001935050505060405180910390a1565b600080600360008473ffffffffffffffffffffffffffffffffffffffff1673ffffffffffffffffffffffffffffffffffffffff1681526020019081526020016000206003015434600360008673ffffffffffffffffffffffffffffffffffffffff1673ffffffffffffffffffffffffffffffffffffffff168152602001908152602001600020600201540111905080915050919050565b60c060405190810160405280600073ffffffffffffffffffffffffffffffffffffffff168152602001600081526020016000815260200160008152602001600015158152602001600081525090565b606060405190810160405280600073ffffffffffffffffffffffffffffffffffffffff16815260200160008152602001600081525090565b815481835581811511610f9157600302816003028360005260206000209182019101610f909190610f96565b5b505050565b610fe991905b80821115610fe557600080820160006101000a81549073ffffffffffffffffffffffffffffffffffffffff02191690556001820160009055600282016000905550600301610f9c565b5090565b905600a165627a7a72305820bdd3748cfb89ec6090dda3a275157ce4e32fe07cf5c03290f24b0b50629d19680029",
  "source": "pragma solidity ^0.4.17;\r\n\r\ncontract DonateContract {\r\n    \r\n    struct DonationInfo {\r\n        address giver;\r\n        uint amount;\r\n        uint date;\r\n    }\r\n    \r\n     struct CompaignInfo {\r\n        address holder; \r\n        uint creationDate;\r\n        uint collectedFunds;\r\n        uint totalFundsNeeded;\r\n        bool isActive;\r\n        uint fundsCollectedAt;\r\n    }\r\n    \r\n    address private owner;\r\n    uint private totalCompaings;\r\n    uint private totalFundsDonated;\r\n    \r\n    mapping(address => CompaignInfo) private compaigns;\r\n    mapping(address => DonationInfo[]) private donationDetails;\r\n    \r\n    event CompaingStarted(address owner, uint fundsNeeded, uint date);\r\n    event FundsDonated(address from, address compaign, uint fundsAmount, uint date);\r\n    event ContractDonated(address from, uint fundsAmount, uint date);\r\n     \r\n    function DonateContract() public {\r\n        owner = msg.sender;\r\n        totalCompaings = 0;\r\n        totalFundsDonated = 0;\r\n    }\r\n    \r\n    modifier isOwner() {\r\n        require(msg.sender == owner);\r\n        _;\r\n    }\r\n    \r\n    modifier isOverflow(address _compaignAddr) {\r\n        uint compaignFunds = compaigns[_compaignAddr].collectedFunds;\r\n        require(compaignFunds + msg.value > compaignFunds);\r\n         _;\r\n    }\r\n    \r\n    modifier isValidCompaign(address _addr) {\r\n       require(compaigns[_addr].holder == _addr);\r\n       require(compaigns[_addr].isActive == true);\r\n       _;\r\n    }\r\n    \r\n    modifier isNewCompaign(address _addr) {\r\n        require(compaigns[_addr].holder != _addr);\r\n       _;\r\n    }\r\n    \r\n    function getAllCompaigns() public view returns(uint) {\r\n        return totalCompaings;\r\n    }\r\n    \r\n    function donate() payable public {\r\n        ContractDonated(msg.sender, msg.value, now);\r\n    }\r\n    \r\n    function startCompaign(address _addr, uint fundsNeeded) isOwner isNewCompaign(_addr) public {\r\n       CompaignInfo memory cInfo;\r\n       cInfo.creationDate = now;\r\n       cInfo.holder = _addr;\r\n       cInfo.isActive = true;\r\n       cInfo.totalFundsNeeded = fundsNeeded * 1 ether;\r\n       cInfo.collectedFunds = 0;\r\n   \r\n       compaigns[_addr] = cInfo;\r\n       \r\n       totalCompaings +=1;\r\n       \r\n       CompaingStarted(_addr, fundsNeeded, now);\r\n    }\r\n    \r\n    function isDonateMoreThanRemaining(address _addr) private view returns(bool) {\r\n        bool isMore = compaigns[_addr].collectedFunds + msg.value > compaigns[_addr].totalFundsNeeded;\r\n        return isMore;\r\n    }\r\n    \r\n    function donateForCompaign(address compaignAddr) \r\n            public isValidCompaign(compaignAddr) isOverflow(compaignAddr) payable {\r\n    \r\n        uint sumToTranfer = msg.value;\r\n        \r\n        // if sum us more take only needed\r\n        if(isDonateMoreThanRemaining(compaignAddr)) {\r\n            sumToTranfer =  compaigns[compaignAddr].totalFundsNeeded - compaigns[compaignAddr].collectedFunds;\r\n        }\r\n        \r\n        compaigns[compaignAddr].collectedFunds += sumToTranfer;\r\n        compaignAddr.transfer(sumToTranfer);\r\n        DonationInfo memory info = DonationInfo({\r\n                giver : msg.sender,\r\n                amount : sumToTranfer,\r\n                date : now\r\n            });\r\n            \r\n        donationDetails[compaignAddr].push(info);\r\n        totalFundsDonated += sumToTranfer;\r\n        \r\n        FundsDonated(msg.sender, compaignAddr, sumToTranfer , info.date);\r\n        \r\n        // money are collected \r\n        if(compaigns[compaignAddr].collectedFunds >= compaigns[compaignAddr].totalFundsNeeded) {\r\n            compaigns[compaignAddr].isActive = false;\r\n            compaigns[compaignAddr].fundsCollectedAt = info.date;\r\n        }\r\n    }\r\n    \r\n    function allCompaignsInfo() public view returns(uint totalFunds, uint allCompaings) {\r\n        return (totalFunds = totalFundsDonated, allCompaings = totalCompaings);\r\n    }\r\n    \r\n    function compaignDetails(address _addr) view public returns(uint totalNeeded, uint collectedUntilNow, uint giversCount){\r\n        return (\r\n                totalNeeded = compaigns[_addr].totalFundsNeeded,\r\n                collectedUntilNow = compaigns[_addr].collectedFunds,\r\n                giversCount = donationDetails[_addr].length\r\n            );\r\n    }\r\n    \r\n    function giverDetails(address compaignAddr, uint index) public view \r\n        returns (address giver, uint amount, uint date) {\r\n        \r\n        DonationInfo memory giverInfo = donationDetails[compaignAddr][index];\r\n        return (giver = giverInfo.giver, amount = giverInfo.amount, date = giverInfo.date);\r\n    }\r\n    \r\n    function getTotalBalance() public isOwner view returns(uint) {\r\n        return this.balance;\r\n    }\r\n    \r\n    function whoIsOwner() public view returns(address){\r\n        return owner;\r\n    }\r\n}",
  "sourcePath": "D:\\Projects\\BlockChain\\StaevDapp\\truffle\\contracts\\DonateContract.sol",
  "compiler": {
    "name": "solc",
    "version": "0.4.19+commit.c4cbbb05.Emscripten.clang"
  },
  "schemaVersion": "1.0.1",
  "updatedAt": "2018-03-05T23:07:32.643Z"
}