{
  "contractName": "SumContract",
  "abi": [
    {
      "inputs": [],
      "payable": false,
      "stateMutability": "nonpayable",
      "type": "constructor"
    },
    {
      "anonymous": false,
      "inputs": [
        {
          "indexed": false,
          "name": "oldValue",
          "type": "uint256"
        },
        {
          "indexed": false,
          "name": "newValue",
          "type": "uint256"
        }
      ],
      "name": "newValue",
      "type": "event"
    },
    {
      "constant": true,
      "inputs": [],
      "name": "get",
      "outputs": [
        {
          "name": "",
          "type": "uint256"
        }
      ],
      "payable": false,
      "stateMutability": "view",
      "type": "function"
    },
    {
      "constant": false,
      "inputs": [],
      "name": "increment",
      "outputs": [],
      "payable": false,
      "stateMutability": "nonpayable",
      "type": "function"
    }
  ],
  "bytecode": "0x6060604052341561000f57600080fd5b6037600081905550610115806100266000396000f3006060604052600436106049576000357c0100000000000000000000000000000000000000000000000000000000900463ffffffff1680636d4ce63c14604e578063d09de08a146074575b600080fd5b3415605857600080fd5b605e6086565b6040518082815260200191505060405180910390f35b3415607e57600080fd5b6084608f565b005b60008054905090565b600080549050600160008082825401925050819055507fcdc122d295e397a1be79741a7a0fc96a45258d4305c784cd341fa392092cccfe81600054604051808381526020018281526020019250505060405180910390a1505600a165627a7a72305820bdd6d025d90771f0655cb683cba7db2c528feca4e81e75ecc95c94fc473045c90029",
  "source": "pragma solidity ^0.4.18;\r\ncontract SumContract {\r\n\r\n    uint private value;\r\n    event newValue(uint oldValue, uint newValue);\r\n    \r\n    function SumContract() public {\r\n        value =55;\r\n    }\r\n    \r\n    function get() public view returns(uint){\r\n        return value;\r\n    }\r\n    \r\n    function increment() public {\r\n        uint oldValue = value;\r\n       value += 1;\r\n       newValue(oldValue,value);\r\n    }   \r\n}",
  "sourcePath": "D:\\Projects\\BlockChain\\StaevDapp\\truffle\\contracts\\SumContract.sol",
  "compiler": {
    "name": "solc",
    "version": "0.4.19+commit.c4cbbb05.Emscripten.clang"
  },
  "schemaVersion": "2.0.0",
  "updatedAt": "2018-03-08T21:11:17.536Z"
}