{
  "contractName": "SumContract",
  "abi": [
    {
      "inputs": [],
      "payable": false,
      "stateMutability": "nonpayable",
      "type": "constructor"
    },
    {
      "constant": true,
      "inputs": [],
      "name": "get",
      "outputs": [
        {
          "name": "",
          "type": "uint256"
        }
      ],
      "payable": false,
      "stateMutability": "view",
      "type": "function"
    },
    {
      "constant": false,
      "inputs": [],
      "name": "increment",
      "outputs": [],
      "payable": false,
      "stateMutability": "nonpayable",
      "type": "function"
    }
  ],
  "bytecode": "0x6060604052341561000f57600080fd5b603760008190555060cd806100256000396000f3006060604052600436106049576000357c0100000000000000000000000000000000000000000000000000000000900463ffffffff1680636d4ce63c14604e578063d09de08a146074575b600080fd5b3415605857600080fd5b605e6086565b6040518082815260200191505060405180910390f35b3415607e57600080fd5b6084608f565b005b60008054905090565b600160008082825401925050819055505600a165627a7a723058200db1143f1c29e243d7731a61f1cc9cb6cf2cd54ea4626baf12f44892167584f80029",
  "source": "pragma solidity ^0.4.18;\r\ncontract SumContract {\r\n\r\n    uint private value;\r\n\r\n    function SumContract() public {\r\n        value =55;\r\n    }\r\n    \r\n    function get() public view returns(uint){\r\n        return value;\r\n    }\r\n    \r\n    function increment() public {\r\n       value += 1;\r\n    }\r\n    \r\n}",
  "sourcePath": "D:\\Projects\\BlockChain\\StaevDapp\\truffle\\contracts\\SumContract.sol",
  "compiler": {
    "name": "solc",
    "version": "0.4.19+commit.c4cbbb05.Emscripten.clang"
  },
  "schemaVersion": "1.0.1",
  "updatedAt": "2018-03-06T21:58:30.043Z"
}